{
  "_format": "hh-sol-artifact-1",
  "contractName": "Marketplace",
  "sourceName": "contracts/Marketplace.sol",
  "abi": [
    {
      "anonymous": false,
      "inputs": [
        {
          "indexed": false,
          "internalType": "uint256",
          "name": "listingId",
          "type": "uint256"
        },
        {
          "indexed": false,
          "internalType": "uint256",
          "name": "price",
          "type": "uint256"
        }
      ],
      "name": "ItemListed",
      "type": "event"
    },
    {
      "anonymous": false,
      "inputs": [
        {
          "indexed": false,
          "internalType": "uint256",
          "name": "listingId",
          "type": "uint256"
        }
      ],
      "name": "ItemSold",
      "type": "event"
    },
    {
      "inputs": [
        {
          "internalType": "uint256",
          "name": "_listingId",
          "type": "uint256"
        }
      ],
      "name": "buyItem",
      "outputs": [],
      "stateMutability": "payable",
      "type": "function"
    },
    {
      "inputs": [
        {
          "internalType": "uint256",
          "name": "_price",
          "type": "uint256"
        },
        {
          "internalType": "address",
          "name": "_nftAddress",
          "type": "address"
        },
        {
          "internalType": "uint256",
          "name": "_tokenId",
          "type": "uint256"
        }
      ],
      "name": "listItem",
      "outputs": [],
      "stateMutability": "nonpayable",
      "type": "function"
    },
    {
      "inputs": [],
      "name": "listingCount",
      "outputs": [
        {
          "internalType": "uint256",
          "name": "",
          "type": "uint256"
        }
      ],
      "stateMutability": "view",
      "type": "function"
    },
    {
      "inputs": [
        {
          "internalType": "uint256",
          "name": "",
          "type": "uint256"
        }
      ],
      "name": "listings",
      "outputs": [
        {
          "internalType": "address",
          "name": "seller",
          "type": "address"
        },
        {
          "internalType": "address",
          "name": "buyer",
          "type": "address"
        },
        {
          "internalType": "uint256",
          "name": "price",
          "type": "uint256"
        },
        {
          "internalType": "address",
          "name": "nftAddress",
          "type": "address"
        },
        {
          "internalType": "uint256",
          "name": "tokenId",
          "type": "uint256"
        },
        {
          "internalType": "uint256",
          "name": "listedAt",
          "type": "uint256"
        },
        {
          "internalType": "uint256",
          "name": "soldAt",
          "type": "uint256"
        }
      ],
      "stateMutability": "view",
      "type": "function"
    }
  ],
  "bytecode": "0x608060405234801561001057600080fd5b506107c5806100206000396000f3fe60806040526004361061003f5760003560e01c8063132e9db614610044578063a9b07c2614610066578063de74e57b1461008f578063e7fb74c71461013b575b600080fd5b34801561005057600080fd5b5061006461005f3660046106f3565b61014e565b005b34801561007257600080fd5b5061007c60005481565b6040519081526020015b60405180910390f35b34801561009b57600080fd5b506100f66100aa36600461072b565b600160208190526000918252604090912080549181015460028201546003830154600484015460058501546006909501546001600160a01b039687169694851695939490921692909187565b604080516001600160a01b0398891681529688166020880152860194909452949091166060840152608083015260a082019290925260c081019190915260e001610086565b61006461014936600461072b565b610443565b81836101a15760405162461bcd60e51b815260206004820152601c60248201527f5072696365206d7573742062652067726561746572207468616e20300000000060448201526064015b60405180910390fd5b6040516331a9108f60e11b81526004810183905233906001600160a01b03831690636352211e90602401602060405180830381865afa1580156101e8573d6000803e3d6000fd5b505050506040513d601f19601f8201168201806040525081019061020c9190610744565b6001600160a01b03161461026d5760405162461bcd60e51b815260206004820152602260248201527f4f6e6c79206f776e657220697320616c6c6f77656420746f206c697374206974604482015261656d60f01b6064820152608401610198565b60405163020604bf60e21b81526004810183905230906001600160a01b0383169063081812fc90602401602060405180830381865afa1580156102b4573d6000803e3d6000fd5b505050506040513d601f19601f820116820180604052508101906102d89190610744565b6001600160a01b03161461032e5760405162461bcd60e51b815260206004820152601a60248201527f4e6f20617070726f76616c20746f206d61726b6574706c6163650000000000006044820152606401610198565b60008054818061033d83610768565b909155506040516331a9108f60e11b8152600481018590529091506001600160a01b03831690636352211e90602401602060405180830381865afa158015610389573d6000803e3d6000fd5b505050506040513d601f19601f820116820180604052508101906103ad9190610744565b60008281526001602090815260409182902080546001600160a01b03199081166001600160a01b03958616178255600282018a905560038201805490911694891694909417909355600483018690554260059093019290925580518381529182018790527f5cedb4b4e9d21f2b6ae92d858fd47c1f6ef4af540c48aea4cccc861bdfbffb69910160405180910390a15050505050565b6000818152600160205260409020600201546104955760405162461bcd60e51b8152602060048201526011602482015270131a5cdd1a5b99c81b9bdd08199bdd5b99607a1b6044820152606401610198565b600081815260016020526040902060060154156104eb5760405162461bcd60e51b8152602060048201526014602482015273125d195b481a5cc8185b1c9958591e481cdbdb1960621b6044820152606401610198565b6000818152600160205260409020546001600160a01b0316330361054a5760405162461bcd60e51b815260206004820152601660248201527529b2b63632b91031b0b73737ba10313290313abcb2b960511b6044820152606401610198565b60008181526001602052604090206002015434146105aa5760405162461bcd60e51b815260206004820152601c60248201527f416d6f756e742070616964206e6f7420657175616c73207072696365000000006044820152606401610198565b600081815260016020526040808220600381015481546004928301548451632142170760e11b81526001600160a01b0392831694810194909452336024850152604484015292519216926342842e0e9260648084019382900301818387803b15801561061557600080fd5b505af1158015610629573d6000803e3d6000fd5b5050506000828152600160205260408082205490516001600160a01b0390911692503480156108fc0292909190818181858888f19350505050158015610673573d6000803e3d6000fd5b5060008181526001602081905260409182902090810180546001600160a01b0319163317905542600690910155517fadf6d10d44a697fd240c9a1ef648f41cd3fdb3d0381c241842dcd46b3dfbd041906106d09083815260200190565b60405180910390a150565b6001600160a01b03811681146106f057600080fd5b50565b60008060006060848603121561070857600080fd5b83359250602084013561071a816106db565b929592945050506040919091013590565b60006020828403121561073d57600080fd5b5035919050565b60006020828403121561075657600080fd5b8151610761816106db565b9392505050565b60006001820161078857634e487b7160e01b600052601160045260246000fd5b506001019056fea26469706673582212205fafd4cca44c0aef80439ec280d6735f506b5b966fcb125333003567368bec7464736f6c63430008130033",
  "linkReferences": {},
  "deployedLinkReferences": {}
}